:02000000542981
:020006000800F0
:10000800FF00030E8301AF000A08AE008A017008E2
:10001800A1007108A0000B11810100302706031D03
:10002800172808302606031D57282808013EF00027
:1000380000300318013E2907F1007008A800710874
:10004800A900A601A7012A140A30F4000030F5001F
:100058002808F0002908F100E4207808F000790861
:10006800F10000307106031D3B2800307006031DA7
:100078003E28AA146430F4000030F5002808F00087
:100088002908F100E4207808F0007908F100003030
:100098007106031D512800307006031D56282A15C5
:1000A800A801A90163282608013EF00000300318C2
:1000B800013E2707F1007008A6007108A700210873
:1000C800F0002008F1002E088A002F0E8300FF0E92
:0400D8007F0E09008E
:1000DC00710DF80DF90D7408F8027508031C750FF5
:1000EC00F902F00DF10D0F30FC00710DF80DF90D4A
:1000FC007408701C8728F8027508031C750FF90228
:10010C008C28F80775080318750FF907F00DF10D19
:10011C00FC0B7B28701898287408F80775080318CE
:08012C00750FF907000008003F
:10013400B328F03083120313880509308804C628D5
:10014400F030880503308804C628F030880506306E
:100154008804C628F03088050C308804AB01C62812
:10016400C628831203132B08003A03199B282B0873
:10017400033A0319A2282B08063A0319A7282B08C7
:0C018400093A0319AC28B228AB0A0800A5
:0E019000831203132D088A002C088200080039
:10019E00C8208A110A128000840AAC0A0319AD0A1B
:0801AE00F003031DCF28080037
:1001B6002030831203138806B001B1019A2008008B
:0201C60008002F
:1001C800831203137408003A031DF3287508003AD4
:1001D800031DF328FF30F0007F30F1004C29831213
:1001E8000313FD01F901F8017108700403190034C3
:1001F80071087506FA00FA1BFD09FB01F51F0929AC
:10020800F409F509F40A0319F50AF11F1029F00990
:10021800F109F00A0319F10A71087504FA00FA1BCA
:1002280025296E207B183829FD1F0034F009F109B3
:10023800F00A0319F10AF809F909F80A0319F90A81
:100248000034F51F3429F11B30297108F9007008B2
:10025800F800F101F0011829F101F001F00A003469
:10026800F109F009FB0A1529F80A0319F90A7408B3
:100278007802031D182975087902031D1829F90148
:10028800F801F00A0319F10AF11F18290000FF34D8
:0202980008005C
:0E029A00831603138801F030831288050800D4
:1002A80083120313A201A301A401A501A601A701BA
:1002B800A801A901AA01AB01FF3083168500FF3010
:1002C8008600FF308700031788018901031388120D
:1002D800811101118110011081120B11831281010A
:1002E8008B168B174D2101302A05F1007108003A51
:1002F80003198129DB20FE30AA0502302A05F10006
:100308007108003A03198B29E320FD30AA0504304F
:100318002A05F1007108003A031995290320FB30DA
:06032800AA0577299629C1
:04400E00F22F000786
:00000001FF
