:0200000048288E
:10000800FF00030E8301A6000A08A7008A017008F2
:10001800A1007108A00000302306031D1528083030
:100028002206031D1E280B11810120308806A2011B
:10003800A3012A282208013EF00000300318013EDF
:100048002307F1007008A2007108A3002108F0003E
:100058002008F10027088A00260E8300FF0E7F0E75
:0200680009008D
:0E006A008312031325088A0024088200080070
:1000780035208A110A128000840AA40A0319A50AE5
:08008800F003031D3C280800F1
:1000900083120313A201A301FF3083168500FF30F2
:1000A0008600FF3087000317880189010313881237
:1000B000811101118114011081120B118312810130
:0800C0008B168B1762286328E0
:04400E00F22F000786
:00000001FF
