:020000002229B3
:020006000800F0
:10000800FF00030E8301AE000A08AD008A017008E4
:10001800A1007108A00000302806031D152808302B
:100028002706031D2A280B1181012030880629087C
:10003800013EF00000300318013E2A07F100700865
:10004800A9007108AA00A701A80136282708013EBF
:10005800F00000300318013E2807F1007008A700DF
:100068007108A8002108F0002008F1002D088A0076
:0A0078002E0E8300FF0E7F0E09001C
:100082005A28F030831203138805093088046D283A
:10009200F0308805033088046D28F030880506307A
:1000A20088046D28F03088050C308804A2016D2880
:1000B2006D28831203132208003A031942282208EA
:1000C200013A031949282208023A03194E28220844
:0A00D200033A0319532859280800C7
:1000DC00710DF80DF90D7408F8027508031C750FF5
:1000EC00F902F00DF10D0F30FC00710DF80DF90D4A
:1000FC007408701C8728F8027508031C750FF90228
:10010C008C28F80775080318750FF907F00DF10D19
:10011C00FC0B7B28701898287408F80775080318CE
:08012C00750FF907000008003F
:0E013400831203132C088A002B088200080097
:10014200831203137408003A031DB0287508003A9D
:10015200031DB028FF30F0007F30F100092983121F
:100162000313FD01F901F801710870040319003449
:1001720071087506FA00FA1BFD09FB01F51FC62876
:10018200F409F509F40A0319F50AF11FCD28F0095B
:10019200F109F00A0319F10A71087504FA00FA1B51
:1001A200E2286E207B18F528FD1F0034F009F109C2
:1001B200F00A0319F10AF809F909F80A0319F90A08
:1001C2000034F51FF128F11BED287108F9007008C1
:1001D200F800F101F001D528F101F001F00A003434
:1001E200F109F009FB0AD228F80A0319F90A74087E
:1001F2007802031DD52875087902031DD528F90157
:10020200F801F00A0319F10AF11FD5280000FF34A2
:020212000800E2
:100214009A208A110A128000840AAB0A0319AC0AD4
:08022400F003031D0A29080084
:0C022C0083120313AF01B0014120080051
:020238000800BC
:0A023A00F030831603138805080056
:1002440083120313A201A301A401A501A601A7011E
:10025400A801A901AA01FF3083168500FF3086009A
:10026400FF30870003178801890103138812811165
:1002740001118114011081120B11831281018B165B
:100284008B171D210230F4000030F5008312290879
:10029400F0002A08F100A1207808F0007908F100A4
:1002A40000307106031D582900307006031D5C29B7
:1002B40003208B291430F4000030F5002908F000E5
:1002C4002A08F100A1207808F0007908F100003034
:1002D4007106031D6F2900307006031D7329162152
:1002E4008B29C830F400F5012908F0002A08F10030
:1002F400A1207808F0007908F10000307106031D90
:10030400852900307006031D8B291C21A901AA012F
:060314008B2944298C290D
:04400E00F22F000786
:00000001FF
