:02000000552980
:020006000800F0
:10000800FF00030E8301AF000A08AE008A017008E2
:10001800A1007108A0000B11810100302706031D03
:10002800172808302606031D57282808013EF00027
:1000380000300318013E2907F1007008A800710874
:10004800A900A601A7012A140A30F4000030F5001F
:100058002808F0002908F100E5207808F000790860
:10006800F10000307106031D3B2800307006031DA7
:100078003E28AA146430F4000030F5002808F00087
:100088002908F100E5207808F0007908F10000302F
:100098007106031D512800307006031D56282A15C5
:1000A800A801A90163282608013EF00000300318C2
:1000B800013E2707F1007008A6007108A700210873
:1000C800F0002008F1002E088A002F0E8300FF0E92
:0400D8007F0E09008E
:1000DC00710DF80DF90D7408F8027508031C750FF5
:1000EC00F902F00DF10D0F30FC00710DF80DF90D4A
:1000FC007408701C8728F8027508031C750FF90228
:10010C008C28F80775080318750FF907F00DF10D19
:10011C00FC0B7B28701898287408F80775080318CE
:08012C00750FF907000008003F
:0E013400831203132D088A002C088200080095
:10014200BB28F03083120313880509308804CE28B7
:10015200F030880503308804CE28F0308805063058
:100162008804CE28F03088050C308804AB01CE28F4
:10017200AB01CE28831203132B08003A0319A228DD
:100182002B08013A0319A9282B08023A0319AE28B1
:0E0192002B08033A0319B328B928AB0A08005A
:1001A0009A208A110A128000840AAC0A0319AD0A47
:0801B000F003031DD028080034
:1001B8002030831203138806B001B101A120080082
:0201C80008002D
:1001CA00831203137408003A031DF4287508003AD1
:1001DA00031DF428FF30F0007F30F1004D2983120F
:1001EA000313FD01F901F8017108700403190034C1
:1001FA0071087506FA00FA1BFD09FB01F51F0A29A9
:10020A00F409F509F40A0319F50AF11F1129F0098D
:10021A00F109F00A0319F10A71087504FA00FA1BC8
:10022A0026296E207B183929FD1F0034F009F109AF
:10023A00F00A0319F10AF809F909F80A0319F90A7F
:10024A000034F51F3529F11B31297108F9007008AE
:10025A00F800F101F0011929F101F001F00A003466
:10026A00F109F009FB0A1629F80A0319F90A7408B0
:10027A007802031D192975087902031D1929F90144
:10028A00F801F00A0319F10AF11F19290000FF34D5
:02029A0008005A
:0E029C00831603138801F030831288050800D2
:1002AA0083120313A201A301A401A501A601A701B8
:1002BA00A801A901AA01AB01FF3083168500FF300E
:1002CA008600FF308700031788018901031388120B
:1002DA00811101118110011081120B118312810108
:1002EA008B168B174E2101302A05F1007108003A4E
:1002FA00031982290320FE30AA0502302A05F100DB
:10030A007108003A03198C29E420FD30AA0504304B
:10031A002A05F1007108003A03199629DC20FB30FE
:06032A00AA0578299729BD
:04400E00F22F000786
:00000001FF
