:040000008A15002835
:020006000800F0
:10000800FF00030E83018316D6000A08D5008A0173
:1000180070088312A8007108A7007208A600740867
:10002800A5007508A4007808A3007908A2007C0838
:10003800A1007D08A0000B11810100302A06031DD4
:10004800272808302906031D67285308013EF000B9
:1000580000300318013E5407F1007008D3007108FE
:10006800D400A901AA016B140A30F4000030F5008D
:100078005308F0005408F10082277808F000790846
:10008800F10000307106031D4B2800307006031D77
:100098004E28EB146430F4000030F5005308F000EB
:1000A8005408F10082277808F0007908F100003040
:1000B8007106031D612800307006031D66286B1544
:1000C800D301D40173282908013EF0000030031839
:1000D800013E2A07F1007008A9007108AA00280843
:1000E800F0002708F1002608F2002508F40024088B
:1000F800F5002308F8002208F9002108FC00200870
:10010800FD00831655088A00560E8300FF0E7F0EE9
:020118000900DC
:10011A00F030831603136605F1000F305705F0001F
:10012A0070087104D700570883128700831657088E
:10013A00F000F00CF013F00CF01370088312850035
:10014A008316571557088312870083165708F0003D
:10015A00F00CF013F00CF0137008831285000330D2
:10016A00FC009730FD00FD0BB828FC0BB8280000F6
:10017A000000831657115708831287008316570801
:10018A00F000F00CF013F00CF013700883128500E5
:10019A000330FC009730FD00FD0BD128FC0BD12861
:1001AA00000000000F3083166605F2007208F100A5
:1001BA00F10D7110F10D7110F10D7110F10D711039
:1001CA000F305705F00070087104D700571557080B
:1001DA008312870083165708F000F00CF013F00C16
:1001EA00F0137008831285000230FC004B30FD00CA
:1001FA00FD0BFD28FC0BFD288316571157088312A7
:10020A00870083165708F000F00CF013F00CF01377
:10021A007008831285000230FC004B30FD00FD0B94
:08022A001429FC0B1429080043
:0A0232008316031387150716080052
:10023C00831603136408F000F00D7010F00D7010AD
:10024C00F00D7010F00D70103230F007650870076B
:10025C0084000008F0007008D4007008E6008D20BF
:02026C00080088
:10026E008316031314193F29111A3F29031040292D
:10027E000314031846299119462970104729701442
:10028E0070184F298316031311194F290310502983
:10029E000314031858298316031391185829701044
:1002AE0059297014701861298316031311186129C6
:0E02BE00031062290314031C65293729080068
:1002CC0083120313F801F9011030FC00710DF80DC5
:1002DC00F90D7408F8027508031C750FF902031860
:1002EC007E297408F80775080318750FF9070310B1
:0A02FC00F00DF10DFC0B6C29080059
:0A0306008316031391143721080039
:100310003721831603139115372183120313130812
:100320008316DF003721831603135E189929911273
:0C0330009A29911611165F08F0000800D1
:10033C00831603135F08E4006108E5001E21831691
:10034C005E0884000008F000840A0008F1006430A4
:10035C00F4000030F5006621303070078316E3009E
:10036C0063088312EC0083165E0884000008F0001A
:10037C00840A0008F1006430F4000030F5006621B6
:10038C007808F0007908F1000A30F4000030F5002C
:10039C006621303070078316C0005E0884000008A8
:1003AC00F000840A0008F1006430F4000030F5001D
:1003BC0066217808F0007908F1000A30F40000306A
:1003CC00F50066217808F0007908F10030307007EC
:1003DC008316D100571457088312870083165708C9
:1003EC00F000F00CF013F00CF01370088312850081
:1003FC000030003A031D052A3030831663060319BA
:10040C00112A83126C088316D40083126C0883168D
:10041C00E6008D20152A20308316E6008D20003052
:10042C00003A031D1C2A303083164006031D282A6F
:10043C000030003A031D252A303083126C06031D50
:10044C00282A2F2A83164008D4004008E6008D2065
:10045C00332A20308316E6008D2083165108D400F1
:10046C005108E6008D208316571057088312870019
:10047C0083165708F000F00CF013F00CF013700812
:06048C0083128500080048
:0E049200831603135E088312930037210800BF
:0A04A000831603131114372108001E
:1004AA00831603135F08E4006108E5001E21831622
:1004BA00571457088312870083165708F000F00C68
:1004CA00F013F00CF01370088312850083165E088F
:1004DA00E6008D208316571057088312870083166B
:1004EA005708F000F00CF013F00CF01370088312A8
:0404FA008500080071
:0A04FE0083160313111537210800BF
:1005080019218312941594160930831693009417B1
:020518000800D9
:10051A00831603135A08F000F00D701004307004AB
:0E052A00D4005B08F000F1017008D404080052
:10053800831203139F149F1CA22A9F2A03301E05AF
:10054800F3007308F200F101FF3083161E05F00076
:100558007008F1040030F20471088312D5007208A3
:10056800D6007208033C031DBB2A7108E73C031838
:0C057800C12AE730D5000330D60008008F
:1005840083160317880100300313D7053030D700D2
:100594005708DB005708F000F00CF013F00CF013D0
:1005A40070088312850083165A0884000030000501
:1005B400F0005A088400700880005A088400800102
:0205C40008002D
:1005C600831603135A08F000F00D7010F00D70102A
:1005D600F00D7010F00D701020307004F300033031
:1005E600F2005B08F000F10172080319FF2AF00D12
:1005F600F10D7010FF3EF82A7008F3045C08F00055
:10060600F101F00DF10D7010F00DF10D7010730881
:0E061600F0047008D4007008E6008D20080083
:100624000330831603135A05F2007208F000F00D2C
:100634007010F00D7010F00D7010F00D7010700847
:100644008312970483165A08F0005B08F100F10C3A
:10065400F00CF113711BF117F10CF00CF113711B79
:0A066400F1177008831295000800DA
:0A066E00831603135A0392000800DC
:100678005022D03083160313DE0049228316031359
:10068800DE0149228321D13083160313DE0049227B
:1006980083160313DE01882170088312D2008316A3
:1006A800DE01882170088312D7008316DE018821B5
:1006B80070088312DA008316DE018821700883121D
:1006C800D9008316DE01882170088312D8008316AA
:1006D800DE01882170088312AC0001308316DE0029
:0C06E800882170088312AB007F220800FC
:0C06F4008312031309148914091508006F
:10070000831603135B08F000F00D7010F00D7010ED
:10071000F00D701040307004F2007208D4005708D9
:100720008312870083165708F000F00CF013F00CCA
:10073000F01370088312850072088316E6008D207E
:100740008316DC01DD0180305D06F0008030003A68
:100750007002031DAD2B10305C020318CD2B571413
:1007600057088312870083165708F000F00CF01327
:10077000F00CF01370088312850083165C085A078A
:1007800084000008F0007008D4007008E6008D2096
:100790008316DC0A0319DD0AA32B571057088312AE
:1007A000870083165708F000F00CF013F00CF013DC
:0807B0007008831285000800A7
:0E07B8008316031359088A00580882000800AF
:1007C6000030831203136E06031DEB2B02306D06F9
:1007D600031D4A2C6F08003A031D4A2C0430831669
:1007E600DE000130DF000030E0000130E1000030C3
:1007F600E200552204308316DE000130DF000030AF
:10080600E0000530E1000030E20055220430831696
:10081600DE000130DF000030E0000930E10000308A
:10082600E200552204308316DE000130DF0000307E
:10083600E0000D30E1000030E20055220130831661
:10084600DE000130DF000030E0000330E100003060
:10085600E200552202308316DE000130DF00003050
:10086600E0000730E1000030E20055220330831635
:10087600DE000130DF000030E0000B30E100003028
:10088600E2005522ED01EE010130EF00D32C0030DD
:100896006E06031D502C02306D06031DAF2C6F082B
:1008A600013A031DAF2C04308316DE000130DF0051
:1008B6000030E0000330E1000030E2005522043051
:1008C6008316DE000130DF000030E0000730E10073
:1008D6000030E200552204308316DE000130DF00CE
:1008E6000030E0000B30E1000030E2005522053018
:1008F6008316DE000130DF000030E0000130E10049
:100906000030E200552206308316DE000130DF009B
:100916000030E0000530E1000030E20055220730EB
:100926008316DE000130DF000030E0000930E10010
:100936000030E200552208308316DE000130DF0069
:100946000030E0000D30E1000030E2005522ED01FC
:10095600EE010230EF00D32C00306E06031DB52CDD
:1009660002306D06031DD32C6F08023A031DD32CEB
:10097600D2308316DE00DF01E0010130E1000030F5
:10098600E2009E2155308316DE00DF01E0010B30C8
:10099600E1000030E2009E21ED01EE01EF01D32CD3
:1009A6006D08013EF00000300318013E6E07F100AD
:0A09B6007008ED007108EE00080063
:1009C000710DF80DF90D7408F8027508031C750F08
:1009D000F902F00DF10D0F30FC00710DF80DF90D5D
:1009E0007408701CF92CF8027508031C750FF902C5
:1009F000FE2CF80775080318750FF907F00DF10DB7
:100A0000FC0BED2C70180A2D7408F80775080318F4
:080A1000750FF9070000080052
:100A1800831603135A08F000F00D7010F00D7010D3
:100A2800F00D7010F00D7010F0167008D400F03052
:100A38007005F1000F305705F00070087104D700F9
:100A480057088312870083165708F000F00CF0133C
:100A5800F00CF01370088312850083165715570899
:100A68008312870083165708F000F00CF013F00C7F
:100A7800F0137008831285000230FC004B30FD0033
:100A8800FD0B442DFC0B442D831657115708831278
:100A9800870083165708F000F00CF013F00CF013E1
:100AA8007008831285000230FC004B30FD00FD0BFE
:080AB8005B2DFC0B5B2D080017
:100AC00084225022D03083160313DE00492283167D
:100AD0000313DE0149228312031352088316DE003A
:100AE00049228312031357088316DE00492283121A
:100AF00003135A088316DE00492283120313590890
:100B00008316DE0049228312031358088316DE0081
:100B10004922831203132C088316DE004922831214
:0E0B200003132B088316DE0049227F220800F3
:100B2E00013083120313F1007108103A0319402E9D
:100B3E00710886000330FC009730FD00FD0BA52DDB
:100B4E00FC0BA52D000000000608F200FD2D013063
:100B5E00F3007308F000442E0230F3007308F00027
:100B6E00442E0330F3007308F000442E0A30F300D5
:100B7E007308F000442E0430F3007308F000442E86
:100B8E000530F3007308F000442E0630F3007308AE
:100B9E00F000442E0B30F3007308F000442E0730A3
:100BAE00F3007308F000442E0830F3007308F000D1
:100BBE00442E0930F3007308F000442E0C30F3007D
:100BCE007308F000442E0E30F3007308F000442E2C
:100BDE00F3017308F000442E0F30F3007308F00099
:100BEE00442E0D30F3007308F000442E7208113AB3
:100BFE000319AE2D7208213A0319B32D7208413A2A
:100C0E000319B82D7208813A0319BD2D7208123AD4
:100C1E000319C22D7208223A0319C72D7208423ADF
:100C2E000319CC2D7208823A0319D12D7208143A89
:100C3E000319D62D7208243A0319DB2D7208443A93
:100C4E000319E02D7208843A0319E52D7208183A3B
:100C5E000319EA2D7208283A0319EF2D7208483A43
:100C6E000319F32D7208883A0319F82DF10D71103E
:0C0C7E009B2D1030F3007308F0000800FC
:100C8A00413083120313FC00EE30FD00FD0B4B2EA6
:080C9A00FC0B4B2E00000800CA
:0A0CA200013083160313D40008008C
:100CAC006E2EF03083120313880509308804812ED0
:100CBC00F030880503308804812EF030880506302A
:100CCC008804812EF03088050C308804812E812E0A
:100CDC00831203133108003A0319572E3108033AD3
:100CEC0003195E2E3108063A0319632E3108093AAE
:100CFC000319682E6D2E003083165B06031D882E9B
:100D0C0001305A06031D9A2E093083123102031842
:100D1C00952E3108013EF1000030F200972EF101C2
:100D2C00F2017108B100AB2E83123108003C03189C
:100D3C00A52E01303102F3000030F400A92E093049
:0C0D4C00F3000030F4007308B100080050
:100D5800831603135A08F000F00D7010F00D701090
:100D680008307004F3005B08F000F101F00DF10D9C
:100D7800701070087304F2005C08F000F10172084A
:0E0D8800F0047008D4007008E6008D2008000A
:100D9600972570088316D200D301E3239C222C30BA
:100DA6008316DA000130DB0012237A233C23080085
:100DB600013083160313DA000030DB0056260800E4
:100DC600831603138801F030831288058730831653
:100DD600DA000730DB008730DC000730DD00C22296
:100DE600452601308316DA000C2501308316DA0019
:100DF6000C258316DA010C258316DA010130DB0097
:100E06000130DC00E3228316DA010130DB00013019
:100E1600DC00E32201308316DA000130DB00DC015E
:100E2600AC2651260130DA00DB018D22C930DA000A
:100E36000130DB008023C1308316DA000230DB008C
:100E46008023A0308316DA000330DB008023633072
:100E56008316DA000430DB0080235B308316DA0069
:100E66000530DB008023A8308316DA000630DB006D
:100E76008023B8308316DA000730DB008023B030D9
:100E86008316DA000830DB00802383160514031767
:100E96000814831203139F171F1783169F178312B5
:100EA6001F14831603178901F0308600831203137B
:100EB600971317139715171583161D109D141D11DB
:100EC6009D111D1683128C1012159214121483167E
:100ED60088120030DA000130DB00372389118910CF
:060EE6000911602508005F
:100EEC00DC238A110A128000840AD80A0319D90A51
:080EFC00F003031D762F08002E
:100F0400831203137408003A031D912F7508003AE5
:100F1400031D912FFF30F0007F30F100EA2F831280
:100F24000313FD01F901F801710870040319003479
:100F340071087506FA00FA1BFD09FB01F51FA72FBE
:100F4400F409F509F40A0319F50AF11FAE2FF009A3
:100F5400F109F00A0319F10A71087504FA00FA1B81
:100F6400C32FE0247B18D62FFD1F0034F009F109AC
:100F7400F00A0319F10AF809F909F80A0319F90A38
:100F84000034F51FD22FF11BCE2F7108F900700821
:100F9400F800F101F001B62FF101F001F00A00347C
:100FA400F109F009FB0AB32FF80A0319F90A7408C6
:100FB4007802031DB62F75087902031DB62FF901B7
:100FC400F801F00A0319F10AF11FB62F0000FF34EB
:020FD400080013
:10100000B020C330831603138500FF308600FF3005
:1010100087000317880189010313881281110111C8
:101020008110011081120B11831281018B168B1715
:101030008A11E3268A150130831203136B05F10030
:101040007108003A031929288A11DB268A15FE3017
:10105000EB0502306B05F1007108003A03193528E1
:101060008A1103208A15FD30EB0504306B05F10071
:101070007108003A031943288A11CB268A15FB30E0
:0A10800083120313EB051B2844281C
:1011600029308400423083120313F0004A30831682
:10117000D8000830D9008A1176278A15A03084005B
:1011800010300313F0008C308316D8000830D900DB
:101190008A1176278A156B30840001300313F00022
:1011A000FF308316D8000730D9008A1176278A15B8
:1011B000B030840010300313F0009C308316D80048
:1011C0000830D9008A1176278A156C3084000430E3
:1011D0000313F000AC308316D8000830D9008A1110
:1011E00076278A15C030840014300313F000EB30EA
:1011F0008316D8000730D9008A1176278A1508008F
:020FD6000034E5
:100FD80004340E340E340E341F3400340E3400340E
:100FE80000340A341F341F340E34043400340034FF
:020FF8000034C3
:040FFA00E7340334A1
:020FFE000034BD
:0410940000340034F0
:021098002434FE
:02109A0005341B
:08109C0000340034003400347C
:0210A400053411
:1010A600803481348234833484348534863487347E
:1010B600883489348A348B348C348D348E348F342E
:1010C600C034C134C234C334C434C534C634C7345E
:1010D600C834C934CA34CB34CC34CD34CE34CF340E
:0210E600503484
:0410E800003400349C
:0410EC00E7340334AE
:0210F000593471
:0210F2002834A0
:0210F4002234A4
:0210F6002334A1
:1010F800013403340F340F340F3403340134003413
:101108000034003400340034003400340034003437
:101118001F3415341F341F340E340A341B34003482
:10112800013403340534093409340B341B341834BE
:101138000E34113411341F341B341B341F34003463
:1011480000340E3415341B340E340E34003400349D
:02115800003461
:04115A000034003429
:02115E0000345B
:04400E00F22F000786
:00000001FF
