:02000000EB28EB
:020006000800F0
:10000800FF00030E8301A9000A08A8008A017008EE
:10001800A1007108A00000302506031D152808302E
:100028002406031D2A280B11810120308806220886
:10003800013EF00000300318013E2307F10070086C
:10004800A2007108A300A401A50136282408013ED6
:10005800F00000300318013E2507F1007008A400E5
:100068007108A5002108F0002008F10028088A007E
:0A007800290E8300FF0E7F0E090021
:10008200710DF80DF90D7408F8027508031C750F4F
:10009200F902F00DF10D0F30FC00710DF80DF90DA4
:1000A2007408701C5A28F8027508031C750FF902AF
:1000B2005F28F80775080318750FF907F00DF10DA1
:1000C200FC0B4E2870186B287408F8077508031883
:0800D200750FF907000008009A
:0E00DA008312031327088A00260882000800FC
:1000E800831203137408003A031D83287508003A25
:1000F800031D8328FF30F0007F30F100DC288312D5
:100108000313FD01F901F8017108700403190034A3
:1001180071087506FA00FA1BFD09FB01F51F9928FD
:10012800F409F509F40A0319F50AF11FA028F009E2
:10013800F109F00A0319F10A71087504FA00FA1BAB
:10014800B52841207B18C828FD1F0034F009F109A3
:10015800F00A0319F10AF809F909F80A0319F90A62
:100168000034F51FC428F11BC0287108F900700875
:10017800F800F101F001A828F101F001F00A0034BB
:10018800F109F009FB0AA528F80A0319F90A740805
:100198007802031DA82875087902031DA828F9010B
:1001A800F801F00A0319F10AF11FA8280000FF342A
:0201B80008003D
:1001BA006D208A110A128000840AA60A0319A70A66
:0801CA00F003031DDD2808000D
:0201D200080023
:0201D400080021
:1001D60083120313A201A301A401A501FF30831614
:1001E6008500FF308600FF308700031788018901EC
:1001F60003138812811101118114011081120B1150
:10020600831281018B168B170230F4000030F50043
:100216002208F0002308F10074207808F00079081D
:10022600F10000307106031D1A2900307006031D07
:100236001E29E9204D291430F4000030F50022086B
:10024600F0002308F10074207808F0007908F10026
:1002560000307106031D312900307006031D352953
:10026600EA204D29C830F400F5012208F0002308E1
:10027600F10074207808F0007908F100003071066A
:10028600031D472900307006031D4D290320A201D6
:08029600A3014D2907294E299F
:04400E00F22F000786
:00000001FF
